:090F6100120EA1120F2A020B5C12
:100E08002200270028002B003071340D38333C01B4
:100E18004023442D48264C00505F5499585F5C94F9
:100E28006005640568056C077002740278027C022C
:100E38008011841188118CA69000940098009C0061
:100E4800B032B4C02800A422A06928F00000000035
:100EA100E4F536F537F594F593F592F591F596F568
:100EB10095F5B2F5B1F5B4F5B3F580C2A0C2A1C202
:100EC100A2C2A3D2C2D2C4D2A4D2A5D2A6D2A7C250
:030ED100C5D2C5C2
:010ED40022FB
:060D3C00AD3FAB3CAF3EF1
:100D4200ED1392A0EDC3131392A1ED1313543F13AD
:100D520092A2ED131313541F1392A3EF14601014F5
:100D6200601714601E24037022C2A4D2A58004D28C
:100D7200A4C2A5D2A6D2A78012D2A4D2A5C2A6D2BC
:100D8200A78008D2A4D2A5D2A6C2A78B80C2C27F56
:100D92000A7E00120F4DD2C2D2A4D2A5D2A6D2A7E9
:020DA20000222D
:100E5800E4F51DE51D25E02408F582E4340EF5834C
:100E6800E493FBE4FDFF120D427F147E00120F4D48
:100E7800E51D25E02408F582E4340EF5837401931A
:100E8800FB7D01E4FF120D427F5A7E00120F4D05D3
:080E98001DE51DC3942840BBB9
:010EA000222F
:100B5C00E4F536F5377538077539D0F53AF53BF5C8
:100B6C003CF53DF53EF53FE5391539700215381465
:100B7C004538700CF53AF53B7538037539E880E764
:100B8C003098E4C29885993CE53B453A6003020CE9
:100B9C002DE53C54F0606924806058249060030279
:100BAC000CA5E53CB4FF097F52120F577F53803DD3
:100BBC00E53C64FE6003020CA5C2C5F536F53705AD
:100BCC0037E53770020536B420F5E536B44EF0D271
:100BDC00C5E4F536F5370537E53770020536B42030
:100BEC00F5E536B44EF07F4F120F577F4B120F576F
:100BFC00020CA5E53C64806003020CA500020CA568
:100C0C00E53CC39400400CE53CD394035005853C73
:100C1C003E8003E4F53E053BE53B7002053A020CD1
:100C2C00A5E53B6401453A7027053BE53B700205A1
:100C3C003AE53C54F0F53D6003B48008E53C540FB4
:100C4C00F53F8005E53DB42005853C3D804B804457
:100C5C00E53B6402453A702CE53D54F0700D120DE5
:100C6C003C053BE53B7032053A802EE53D54F0FFE8
:100C7C00BF8005120D3C801CE53D6420701BFD12ED
:100C8C000D3E8010E53B6403453A700DE53F440191
:100C9C00FD120D3EE4F53AF53B7538277539100217
:020CAC000B73C8
:0A0F4D00EF1F70011E144E70F72212
:100F2A00759850438E40538EFE53890F758BFB750F
:070F3A008DFFC2ABD28E2235
:0A0F5700C2998F993099FDC29922CA
:060DA4008B088A09890A90
:100DAA00E4900033F0F51A751B00751C0B8B408A12
:100DBA00418942851A43851B44851C457B017A007B
:100DCA007900120ED5900033EFF0751A00751B00EA
:100DDA00751C00E4900032F0900033E0FF9000327E
:100DEA00E0FEC39F501774002EF582E43400F583A9
:0D0DFA00E0FF120F57900032E004F080DBA4
:010E070022C8
:03000000020F41AB
:0C0F4100787FE4F6D8FD758145020F6151
:100ED500854025854126854227EBC543FBEAC54468
:100EE500FAE9C545F97F097828120CAEF60809E933
:0E0EF50070010ADFF4AB43AA44A94502085C71
:100CAE00BB010689828A83E0225002E722BBFE0244
:090CBE00E32289828A83E4932277
:10080000E5312425F8E605312278223007027825E3
:10081000E475F001120D06020CAE2000EB7F2ED223
:10082000008018EF540F2490D43440D4FF30040BD0
:10083000EF24BFB41A0050032461FFE532600215B3
:10084000320535E5357002053430070D7822E47540
:10085000F001120D06EF020CF4020F037403D2072D
:100860008003E4C207F5318B228A238924E4F53220
:10087000F534F535E53260077F2012083B80F575C9
:1008800033FFC201C200C202C203C205C206C208CF
:10089000120809FF700D3007057F0012084CAF35B4
:1008A000AE3422B4255FC2D5C204120809FF24D099
:1008B000B40A00501A75F00A783230D50508B6FF30
:1008C0000106C6A426F620D5047002D20380D924DE
:1008D000CFB41A00EF5004C2E5D204020A4CD20190
:1008E00080C6D20080C0D20280BCD2D580BAD205E8
:1008F00080B47F2012083B2002077401B53200400B
:10090000F1120800FF12083B020874D208D20680D8
:1009100095120800FB120800FA120800F94A4B7001
:1009200006791D7A0B7BFF20022EE532602A7E00BD
:100930008E82758300120CC760060EEE653370F070
:10094000C2D5EBC0E0EAC0E0E9C0E0EE120A93D005
:10095000E0F9D0E0FAD0E0FB120CAEFF60AAEBC0E9
:10096000E0EAC0E0E9C0E012083BD0E02401F9D0A1
:10097000E03400FAD0E0FBE5330460DCD533D98005
:10098000877BFF7A0A798FD202809C791080027966
:1009900008C206C2088008D2D5790A8004790AC242
:1009A000D5E533047002F533E4FAFDFEFF120800CA
:1009B000FC7B08200113120800FD7B1030000A1296
:1009C0000800FE120800FF7B20EC3382D592D55040
:1009D00013C3E43000069FFFE49EFEE42001039D64
:1009E000FDE49CFCE4CBF8C201EC700CCFCECDCC86
:1009F000E824F8F870F38017C3EF33FFEE33FEED11
:100A000033FDEC33FCEB33FB994002FB0FD8E9EBF1
:100A1000300105F8D0E0C448B201C0E00AEC4D4E08
:100A20004F78207B0070C2EAB5330040BCC0E012B2
:100A30000A95D0F0D0E0200104C4C0E0C4B201C0E7
:100A4000F0120824D0F0D5F0EB020874120D16094C
:100A50001153098B5808E24C08DE42098F4F099761
:0F0A60004409974908F743099D550981460981C3
:100A6F00450981470B3D5008E62D08EA2E090D2B4D
:100A7F0008EE23090B200B262A08A64800000905BB
:100A8F003F3F3F00790AA2D5200314300509B91062
:100A9F00020404B9080104A2D52006025001042063
:100AAF0002689202B532005034C0E07F2030031943
:100ABF007F30A20272067205500F120AECC202C2F8
:100ACF0006C205C2087F30800F300503E9C0E0126F
:100ADF00083B300503D0E0F9D0E0B532CC30051734
:100AEF007F30B9100C12083B7F583004077F788095
:100AFF0003B9080312083B3002057F2D02083B7F24
:100B0F00202008F87F2B2006F322920280CF286E38
:100B1F00756C6C2900D2011208003001F8C20178FF
:100B2F003230D50108F60208A62D50434958120855
:100B3F00002403B405004001E4900B389312082CF5
:0D0B4F00743A12082CD20375320402098B8F
:100CC700BB010CE58229F582E5833AF583E02250E2
:100CD70006E92582F8E622BBFE06E92582F8E2222C
:0D0CE700E58229F582E5833AF583E4932246
:100CF400BB010689828A83F0225002F722BBFE01DF
:020D0400F322D8
:100D0600FAE6FB0808E6F925F0F618E6CA3AF622EE
:100D1600D083D082F8E4937012740193700DA3A36C
:100D260093F8740193F5828883E473740293686080
:060D3600EFA3A3A380DF80
:100F0300EFB40A07740D120F0E740A309811A899E2
:100F1300B8130CC2983098FDA899C298B811F6304E
:070F230099FDC299F5992226
:00000001FF
