:0907530012069312071C02035F59
:1005FA002200270028002B003071340D38333C01CB
:10060A004023442D48264C00505F5499585F5C940F
:10061A006005640568056C077002740278027C0242
:10062A008011841188118CA69000940098009C0077
:10063A00B032B4C02800A422A06928F0000000004B
:10069300E4F536F537F594F593F592F591F596F57E
:1006A30095F5B2F5B1F5B4F5B3F580C2A0C2A1C218
:1006B300A2C2A3D2C2D2C4D2A4D2A5D2A6D2A7C266
:0306C300C5D2C5D8
:0106C6002211
:06053F00AD3FAB3CAF3EF6
:10054500ED1392A0EDC3131392A1ED1313543F13B2
:1005550092A2ED131313541F1392A3EF14601014FA
:10056500601714601E24037022C2A4D2A58004D291
:10057500A4C2A5D2A6D2A78012D2A4D2A5C2A6D2C1
:10058500A78008D2A4D2A5D2A6C2A78B80C2C27F5B
:0A0595000A7E0012073FD2C20022C6
:10064A00E4F51DE51D25E024FAF582E43405F58379
:10065A00E493FBE4FDFF1205457F147E0012073F79
:10066A00E51D25E024FAF582E43405F58374019347
:10067A00FB7D01E4FF1205457F5A7E0012073F0504
:08068A001DE51DC3942840BBCF
:010692002245
:10035F00E4F536F5377538077539D0F53AF53BF5CD
:10036F003CF53DF53EF53FE539153970021538146A
:10037F004538700CF53AF53B7538037539E880E769
:10038F003098E4C29885993CE53B453A60030204F6
:10039F0030E53C54F060692480605824906003027B
:1003AF0004A8E53CB4FF097F521207497F53803DF3
:1003BF00E53C64FE60030204A8C2C5F536F53705B7
:1003CF0037E53770020536B420F5E536B44EF0D276
:1003DF00C5E4F536F5370537E53770020536B42035
:1003EF00F5E536B44EF07F4F1207497F4B120749A0
:1003FF000204A8E53C648060030204A8000204A87C
:10040F00E53CC39400400CE53CD394035005853C78
:10041F003E8003E4F53E053BE53B7002053A0204DE
:10042F00A8E53B6401453A7027053BE53B700205A3
:10043F003AE53C54F0F53D6003B48008E53C540FB9
:10044F00F53F8005E53DB42005853C3D804B80445C
:10045F00E53B6402453A702CE53D54F0700D1205F2
:10046F003F053BE53B7032053A802EE53D54F0FFEA
:10047F00BF800512053F801CE53D6420701BFD12F7
:10048F0005418010E53B6403453A700DE53F44019B
:10049F00FD120541E4F53AF53B7538277539100221
:0204AF000376D2
:0A073F00EF1F70011E144E70F72228
:10071C00759850438E40538EFE53890F758BFC7524
:07072C008DFFC2ABD28E224B
:0A074900C2998F993099FDC29922E0
:06059F008B088A09890A9D
:1005A500E4900033F0F51A751B00751C0B8B408A1F
:1005B500418942851A43851B44851C457B017A0088
:1005C50079001206C7900033EFF0E4900032F09006
:1005D5000033E0FF900032E0FEC39F501774002EF9
:1005E500F582E43400F583E0FF120749900032E01C
:0405F50004F080DBB3
:0105F90022DF
:03000000020733C1
:0C073300787FE4F6D8FD7581450207537D
:1006C700854025854126854227EBC543FBEAC5447E
:1006D700FAE9C545F97F0978281204B1F60809E94E
:0E06E70070010ADFF4AB43AA44A94502005F8C
:1004B100BB010689828A83E0225002E722BBFE0249
:0904C100E32289828A83E493227C
:10000300E5312425F8E605312278223007027825E8
:10001300E475F0011205090204B12000EB7F2ED232
:10002300008018EF540F2490D43440D4FF30040BD5
:10003300EF24BFB41A0050032461FFE532600215B8
:10004300320535E5357002053430070D7822E47545
:10005300F001120509EF0204F70206F57403D20753
:100063008003E4C207F5318B228A238924E4F53225
:10007300F534F535E53260077F2012003E80F575D3
:1000830033FFC201C200C202C203C205C206C208D4
:1000930012000CFF700D3007057F0012004FAF35C3
:1000A300AE3422B4255FC2D5C20412000CFF24D0A3
:1000B300B40A00501A75F00A783230D50508B6FF35
:1000C3000106C6A426F620D5047002D20380D924E3
:1000D300CFB41A00EF5004C2E5D20402024FD2019A
:1000E30080C6D20080C0D20280BCD2D580BAD205ED
:1000F30080B47F2012003E2002077401B532004015
:10010300F1120003FF12003E020077D208D20680EC
:1001130095120003FB120003FA120003F94A4B7015
:100123000679207A037BFF20022EE532602A7E00C7
:100133008E827583001204CA60060EEE653370F07A
:10014300C2D5EBC0E0EAC0E0E9C0E0EE120296D00F
:10015300E0F9D0E0FAD0E0FB1204B1FF60AAEBC0F3
:10016300E0EAC0E0E9C0E012003ED0E02401F9D0AB
:10017300E03400FAD0E0FBE5330460DCD533D9800A
:10018300877BFF7A027992D202809C791080027970
:1001930008C206C2088008D2D5790A8004790AC247
:1001A300D5E533047002F533E4FAFDFEFF120003D4
:1001B300FC7B08200113120003FD7B1030000A12A0
:1001C3000003FE120003FF7B20EC3382D592D5504F
:1001D30013C3E43000069FFFE49EFEE42001039D69
:1001E300FDE49CFCE4CBF8C201EC700CCFCECDCC8B
:1001F300E824F8F870F38017C3EF33FFEE33FEED16
:1002030033FDEC33FCEB33FB994002FB0FD8E9EBF6
:10021300300105F8D0E0C448B201C0E00AEC4D4E0D
:100223004F78207B0070C2EAB5330040BCC0E012B7
:100233000298D0F0D0E0200104C4C0E0C4B201C0F1
:10024300F0120027D0F0D5F0EB0200771205190168
:100253001453018E5800E54C00E14201924F019A7C
:0F02630044019A4900FA4301A0550184460184E1
:100272004501844703405000E92D00ED2E01102B6B
:1002820000F123010E2003292A00A94800000108D9
:100292003F3F3F00790AA2D5200314300509B91067
:1002A200020404B9080104A2D52006025001042068
:1002B20002689202B532005034C0E07F2030031948
:1002C2007F30A20272067205500F1202EFC202C202
:1002D20006C205C2087F30800F300503E9C0E01274
:1002E200003E300503D0E0F9D0E0B532CC3005173E
:1002F2007F30B9100C12003E7F583004077F78809F
:1003020003B9080312003E3002057F2D02003E7F32
:10031200202008F87F2B2006F322920280CF286E3D
:10032200756C6C2900D2011200033001F8C2017809
:100332003230D50108F60200A92D50434958120067
:10034200032403B405004001E490033B9312002F01
:0D035200743A12002FD20375320402018E9E
:1004CA00BB010CE58229F582E5833AF583E02250E7
:1004DA0006E92582F8E622BBFE06E92582F8E22231
:0D04EA00E58229F582E5833AF583E493224B
:1004F700BB010689828A83F0225002F722BBFE01E4
:02050700F322DD
:10050900FAE6FB0808E6F925F0F618E6CA3AF622F3
:10051900D083D082F8E4937012740193700DA3A371
:1005290093F8740193F5828883E473740293686085
:06053900EFA3A3A380DF85
:1006F500EFB40A07740D120700740A309811A8990F
:10070500B8130CC2983098FDA899C298B811F63064
:0707150099FDC299F599223C
:00000001FF
